:020000040800F2
:1000000068060020450200084D0200084F02000863
:1000100051020008530200085502000800000000C9
:10002000000000000000000000000000570200086F
:1000300059020008000000005B0200085D02000891
:100040005F0200085F0200085F0200085F0200080C
:100050005F0200085F0200085F0200085F020008FC
:100060005F0200085F0200085F0200085F020008EC
:100070005F0200085F0200085F0200085F020008DC
:100080005F0200085F0200085F0200080000000035
:100090000000000000000000000000005F020008F7
:1000A0005F0200085F0200085F0200085F020008AC
:1000B0005F0200085F0200085F0200085F0200089C
:1000C0005F0200085F0200085F0200085F0200088C
:1000D0005F0200085F0200085F02000800000000E5
:1000E000010300085F0200085F0200080000000032
:1000F0000000000000000000000000005F02000897
:10010000000000005F0200085F0200085F020008B4
:1001100000000000000000000000000000000000DF
:100120005F0200085F0200085F0200085F0200082B
:100130005F02000800000000000000000000000056
:100140000000000000000000000000005F02000846
:100150005F0200085F0200085F0200085F020008FB
:100160005F0200085F0200080000000000000000BD
:10017000000000000000000000000000000000007F
:10018000000000005F020008000000000000000006
:100190005F02000800F002F800F044F814A696E8A8
:1001A000000CB244B344DA4501D100F03BF8BAE8A0
:1001B0000F000FA696E83000A5EB040504EB060738
:1001C000AAEB0704A7F101074FEA15154FEA34140B
:1001D000A4F10104AC4201D300F024F813F0010FA4
:1001E00018BFFB1A43F0010300F001F8DBE71847E2
:1001F000D8020000E802000070470000002300243D
:1002000000250026103A28BF78C1FBD8520728BF26
:1002100030C148BF0B6070471FB500F047F91FBDE4
:1002200010B510BD00F031F81146FFF7F5FF00F0F2
:10023000D1F800F04FF803B4FFF7F2FF03BC00F071
:1002400057F800000948804709480047FEE7FEE7E5
:10025000FEE7FEE7FEE7FEE7FEE7FEE7FEE7FEE776
:1002600004480549054A064B704700004D03000845
:100270009501000868000020680600206802002040
:1002800068020020704770477047754600F02CF8F0
:10029000AE4605006946534620F00700854618B073
:1002A00020B5FFF7DDFFBDE820404FF000064FF01E
:1002B00000074FF000084FF0000BAC46ACE8C00957
:1002C000ACE8C009ACE8C009ACE8C00921F00701FE
:1002D0008D46704710B50446AFF300802046BDE858
:1002E0001040FFF7A8BF0000004870470000002042
:1002F00001491820ABBEFEE726000200704700004F
:1003000043F61440C4F20100006800F400500128D4
:100310001BD1FFE743F61441C4F20101086840F421
:100320000050086040F26000C2F200000168013134
:1003300001600068022807DBFFE740F26001C2F2BB
:10034000000100200860FFE7FFE770474EF6885184
:10035000CEF20001086840F47000086070470000A9
:1003600081B08DF803009DF9030000280ED4FFE74B
:100370009DF9031001F01F02012090404A094EF23E
:100380000011CEF2000141F82200FFE701B07047F2
:1003900082B08DF8070000919DF9070000280AD46B
:1003A000FFE7009800019DF907104EF20042CEF2DF
:1003B000000288540BE0009800019DF8071001F03E
:1003C0000F014EF61452CEF200028854FFE702B03D
:1003D0007047000080B582B00020019043F63001E4
:1003E000C4F20201086840F00100086043F64401CD
:1003F000C4F20201086840F48040086043F614012A
:10040000C4F20101086820F0F00008600868086084
:1004100043F60041C4F20101086840F4005008604E
:1004200043F60841C4F20101086820F40050086056
:1004300043F60C41C4F20101086840F40050086022
:100440000A2000900321FFF7A3FF0098FFF788FF21
:100450000021C4F2020108680860086820F4806086
:100460000860086840F480600860FFE740F26000C0
:10047000C2F200000068012806D1FFE71821C4F28B
:100480000201202008600EE040F26000C2F200008D
:10049000006838B9FFE71821C4F202014FF40010D8
:1004A0000860FFE7FFE7FFF72BFFDFE7F1EE100A39
:1004B0004FF6FF71C0F2C03120EA010040F04070F9
:1004C000E1EE100A70470000D80400080000002088
:0804D00068060000FC010008B1
:0400000508000245A8
:00000001FF
